:100000000C9426010C9457010C9457010C94570141
:100010000C9457010C9457010C9457010C94570100
:100020000C9457010C9457010C9457010C945701F0
:100030000C9457010C9457010C9457010C945701E0
:100040000C9457010C9457010C9457010C945701D0
:100050000C9457010C9457010C9457010C943904DB
:100060000C9457010C9457010C9457010C945701B0
:100070000C9457010C9457010C9457010C945701A0
:100080000C9457010C9457010C9457010C94570190
:100090000C9457010C9457010C9457010C94830451
:1000A0000C9457010C9457010C9457010C94570170
:1000B0000C9457010C9457010C9457010C94570160
:1000C0000C9457010C9457010C9457010C94570150
:1000D0000C9457010C9457010C9457010C94570140
:1000E0000C9457010C9415020C94F9010C94950290
:1000F0000C94C4010C9459010C94E5010C948602F3
:100100000C94F5010C94DE010C94BF010C94EB01EE
:100110000C94CB020C9411020C94AF020C94A70522
:100120000C9403020C94FD010C9407020C94A80299
:100130000C94BA020C94A8030C9486060C94E20169
:100140000C94DA010C940B020C9465010C9485025A
:100150000C94EF010C94CE020C94D6010000220006
:10016000250028002B002E00310034000201000081
:10017000050108010B010505050507050808080824
:10018000020202020A0A080804040404010101012F
:10019000010101010303030303030303040707072A
:1001A0000C0C0C0C0C0C0C0C0202020206060606CF
:1001B000060606060B0B0B0B0B0B0B0B010210209C
:1001C000200808102040102040800201020108048D
:1001D0000201010204081020408080402010080421
:1001E000020180040201804020100804020108047A
:1001F00002010102040810204080010204081020BE
:10020000408000000A0B02090C0D0E0807030401D0
:1002100000000000000000000000000000000000DE
:1002200000000000000000000000000000001211AB
:1002300010000000000000000000000000000000AE
:100240000000000000000000A705860611241FBE64
:10025000CFEFD1E2DEBFCDBF00E00CBF22E0ACE1CA
:10026000B2E001C01D92A83DB207E1F712E0A0E0A4
:10027000B2E0E8EDF1E100E00BBF02C007900D92A3
:10028000AC31B107D9F711E0C5E2D1E000E006C01A
:1002900021970109802FFE010E94BC06C432D107BC
:1002A00080E00807A9F70E94C6050C94DA080C94B0
:1002B0000000E091BE02F091BF02309729F0109249
:1002C000BB021092BA0219940895CF93DF93AC0148
:1002D000E091C002F091C1023097F1F09091BD021F
:1002E0008091BC029817C0F090E0292F30E02617CB
:1002F000370754F4D901A35EBD4F240F351FE90120
:1003000028812C939F5FF1CF1092BD026093BC02B5
:10031000CB01DF91CF911994DF91CF910895282FD0
:1003200030E0F901EE5FFD4F9491F901E454FE4F86
:1003300044912A583E4FF9012491222309F435C0F3
:10034000992311F191509231F8F4E92FF0E08827C8
:10035000E355FE4F8F4F0C94BC06DE01E201BF0156
:10036000D601DA01C401E501EB01EF01F501F90164
:10037000FD0103020702C4010B0211021502809164
:1003800080008F7780938000E22FF0E0EE0FFF1F58
:10039000E45AFE4FA591B4918FB7F894EC91611196
:1003A00048C040954E234C938FBF089580918000A4
:1003B0008F7DE8CF80918000877FE4CF84B58F77F1
:1003C00084BDE2CF84B58F7DFBCF8091B0008F7765
:1003D0008093B000D9CF8091B0008F7DF9CF80910C
:1003E00090008F7780939000CFCF809190008F7D89
:1003F000F9CF80919000877FF5CF8091A0008F7713
:100400008093A000C1CF8091A0008F7DF9CF809113
:10041000A000877FF5CF809120018F778093200106
:10042000B3CF809120018F7DF9CF80912001877F0C
:10043000F5CF4E2BB8CF3FB7F8948091B202909190
:10044000B302A091B402B091B50226B5A89B05C035
:100450002F3F19F00196A11DB11D3FBFBA2FA92F43
:10046000982F8827BC01CD01620F711D811D911D40
:1004700042E0660F771F881F991F4A95D1F70895AC
:1004800020916302260F3327331F21323105ECF40C
:1004900020918702FC0190E080E0243069F082E046
:1004A0000895A09163022191AC014D5B5D4FA40FB3
:1004B000B52FB11D2C930196861798F38091630296
:1004C000680F6093630280E0089581E008951092C0
:1004D000870281E0809389021092880261E084E1C2
:1004E0000E948F0161E085E10E948F01E9EBF0E05D
:1004F00080818E7F808380818D7F808388E480935C
:10050000B80085E48093BC0008950895E091BD0291
:100510008091BC02E81730F4F0E0E35EFD4F80818B
:1005200090E008958FEF9FEF08959091BD02809124
:10053000BC022FEF3FEF981748F4E92FF0E0E35E9D
:10054000FD4F208130E09F5F9093BD02C901089567
:100550008091BC029091BD02891B990B0895CF93A5
:10056000DF93CB01EA01642F0E944002CE01DF91AC
:10057000CF910895CF93DF931F92CDB7DEB76983F4
:1005800061E0CE0101960E94400281E090E00F9070
:10059000DF91CF91089590E080E008954091D202DC
:1005A0005091D30280911C02882341F0642F82EC89
:1005B00092E00E94BA0210921C0208956091CE024D
:1005C0007091CF0282EC92E00E94AF0242E050E0D4
:1005D00068E172E082EC92E00C94AF020F931F93FB
:1005E000CF93DF93EC0188819981009759F02A819C
:1005F0003B812617370730F081E0DF91CF911F91C3
:100600000F9108958B016F5F7F4F0E94E90700975C
:1006100059F0998388831B830A832C813D81232B86
:1006200059F7FC011082E8CF80E0E7CFCF93DF934A
:10063000EC0188819981009711F00E94600719826E
:1006400018821D821C821B821A82DF91CF9108952D
:10065000EF92FF920F931F93CF93DF93EC017B01F7
:100660008A01BA010E94EE0281110BC0CE010E94E4
:100670001603CE01DF91CF911F910F91FF90EF9064
:1006800008951D830C83B701888199810E94D30846
:10069000F0CFFC0180819181009711F00C946007EC
:1006A0000895CF93DF9385ED8093BC0080913F0246
:1006B00090914002A0914102B09142020796A11D83
:1006C000B11D23E0B695A795979587952A95D1F703
:1006D0002091BC0024FD03C01092870236C04091D7
:1006E0003F02509140026091410270914202452BBD
:1006F000462B472B69F30097A105B10541F025E38F
:100700002A95F1F700000197A109B109E1CF809185
:100710003E0291E090933D028823B9F0C091B80069
:10072000D091BA008091BC008A7B8093BC0060E0CD
:1007300084E10E948F0160E085E10E948F010E94A8
:100740006702D093BA00C093B800DF91CF910895AB
:10075000EF92FF920F931F93CF93DF93CDB7DEB746
:10076000A9970FB6F894DEBF0FBECDBF82EC92E022
:100770000E9495028335910509F065C081E0809360
:100780001C022FB7F8946091AE027091AF02809175
:10079000B0029091B1022FBF1BA21AA21DA21CA2EF
:1007A0001FA21EA22AE08E010F5F1F4FA8010E9408
:1007B0008A06F80101900020E9F73197AF01401B4C
:1007C000510BB801CE0182960E9428031A82198229
:1007D0001C821B821E821D826AA17BA1611571058C
:1007E00029F04EA15FA1C8010E9428038AE088A7D2
:1007F00019A6ED80FE808FEFE81AF80AB701C8014C
:100800000E94EE02882361F129813A818D819E81C7
:10081000BE01685D7F4F820F931F0E94D308FE8246
:10082000ED8269817A8161157105F1F04D815E81FA
:100830008EEC92E00E942803C8010E944903CE0179
:1008400082960E944903A9960FB6F894DEBF0FBEA8
:10085000CDBFDF91CF911F910F91FF90EF90089541
:10086000C8010E941603DDCF8EEC92E00E941603B1
:10087000E3CF1F920F920FB60F9211242F933F9345
:100880008F939F93AF93BF938091AE029091AF02ED
:10089000A091B002B091B1023091AD0223E0230FDC
:1008A0002D3758F50196A11DB11D2093AD028093FF
:1008B000AE029093AF02A093B002B093B1028091C8
:1008C000B2029091B302A091B402B091B502019628
:1008D000A11DB11D8093B2029093B302A093B40204
:1008E000B093B502BF91AF919F918F913F912F919E
:1008F0000F900FBE0F901F90189526E8230F0296B9
:10090000A11DB11DD2CF1F920F920FB60F921124CD
:100910000BB60F922F933F934F935F936F937F93F9
:100920008F939F93AF93BF93EF93FF938091B90001
:10093000887F803609F44DC008F040C0883209F441
:10094000A9C028F5803109F49DC0C8F4882309F4B2
:10095000FBC0883009F496C0FF91EF91BF91AF9131
:100960009F918F917F916F915F914F913F912F91C7
:100970000F900BBE0F900FBE0F901F9018958831EF
:1009800009F488C0803241F78093860214C0803415
:1009900009F49DC040F48033B9F38833E9F68093BD
:1009A000860285ECB0C0803509F485C0883509F42D
:1009B00096C0883489F60E945103CECF883909F455
:1009C0008CC038F5883729F050F4883611F080371C
:1009D00019F683E0809387021092850257C0883809
:1009E00009F47BC0803919F0803809F0B5CF8091C7
:1009F0008502803208F071C0E091850281E08E0F9F
:100A0000809385028091BB00F0E0EB59FD4F80831D
:100A10003DC0803B39F0E0F4803A09F479C0883A6F
:100A200009F09ACF84E080938702109264021092BA
:100A30006302E091B802F091B902199580916302C6
:100A400081110FC081E0809363021092430209C0BC
:100A5000803C09F4A6CF883C09F4A3CF883B09F079
:100A60007BCFE091640281E08E0F80936402F0E01E
:100A7000ED5BFD4F80818093BB009091640280917B
:100A8000630229C08091AC028093BB0085EC809307
:100A9000BC0062CF9091AB028091AA02981758F5E2
:100AA000E091AB0281E08E0F8093AB02F0E0E6575D
:100AB000FD4F8081E9CFE091AB0281E08E0F809302
:100AC000AB028091BB00F0E0E657FD4F8083909130
:100AD000AB028091AA029817C8F285E8D8CFE091BE
:100AE000AB0281E08E0F8093AB028091BB00F0E0FF
:100AF000E657FD4F80838091890281115CCF81E0B0
:100B00008093880284EA8093BC001092870224CFED
:100B100085EC8093BC001092870280918502803220
:100B200030F4E0918502F0E0EB59FD4F10826091C6
:100B3000850270E0E091B602F091B70285E692E09E
:100B400019951092850208CF1092860234CFE2ECFC
:100B5000F2E01382128288EE93E0A0E0B0E084839A
:100B60009583A683B7838AE092E091838083EEEC3D
:100B7000F2E011821082138212821582148250E0F8
:100B800040E06AE172E0CF010C942803789484B5C8
:100B9000826084BD84B5816084BD85B5826085BD79
:100BA00085B5816085BD80916E00816080936E0007
:100BB00010928100809181008260809381008091F9
:100BC00081008160809381008091800081608093AA
:100BD00080008091B10084608093B1008091B0006A
:100BE00081608093B0008091910082608093910039
:100BF000809191008160809391008091900081604C
:100C0000809390008091A10082608093A1008091E8
:100C1000A10081608093A1008091A00081608093F9
:100C2000A0008091210182608093210180912101A7
:100C30008160809321018091200181608093200157
:100C400080917A00846080937A0080917A0082603B
:100C500080937A0080917A00816080937A008091FD
:100C60007A00806880937A001092C1001092BD02D1
:100C70001092BC021092BB021092BA020E9467024C
:100C800089E591E09093B9028093B80285E691E0FE
:100C90009093B7028093B6028EE28093BA008EECF6
:100CA00092E09093BF028093BE0288EA93E0909313
:100CB000C1028093C002C0E0D0E00E941B024B0141
:100CC0005C0184E6C82ED12CE12CF12C0E941B0281
:100CD000681979098A099B09683E73408105910565
:100CE000A8F321E0C21AD108E108F10888EE880EC5
:100CF00083E0981EA11CB11CC114D104E104F104CD
:100D000029F72097D1F20E940000D7CF8EEC92E015
:100D10000C944903BB27FA01A62F621771058105C0
:100D20009105330B30FB66F0AA27660F771F881FEB
:100D3000991FAA1FA21710F0A21B63953850A9F79C
:100D4000A05DAA3308F0A95DA19336F7B111B19364
:100D50001082CA010C94AC06DC01FC01672F719172
:100D60007723E1F7329704C07C916D937083629191
:100D7000AE17BF07C8F30895EE0FFF1F881F8BBF84
:100D80000790F691E02D19940F931F93CF93DF9363
:100D90008230910510F482E090E0E091D602F0916B
:100DA000D70230E020E0B0E0A0E0309799F42115C0
:100DB000310509F44AC0281B390B24303105D8F518
:100DC0008A819B816115710589F1FB01938382837F
:100DD000FE0111C0408151810281138148175907DA
:100DE000E0F04817590799F4109761F012960C93A8
:100DF000129713961C933296CF01DF91CF911F91DA
:100E00000F9108950093D6021093D702F4CF2115C5
:100E1000310551F04217530738F0A901DB019A015F
:100E2000BD01DF01F801C1CFEF01F9CF9093D702E7
:100E30008093D602CDCFFE01E20FF31F81939193F1
:100E40002250310939832883D7CF2091D4023091A1
:100E5000D502232B41F420910202309103023093FA
:100E6000D5022093D4022091000230910102211575
:100E7000310541F42DB73EB740910402509105026F
:100E8000241B350BE091D402F091D502E217F30751
:100E9000A0F42E1B3F0B2817390778F0AC014E5FEA
:100EA0005F4F2417350748F04E0F5F1F5093D50250
:100EB0004093D402819391939FCFF0E0E0E09CCFE8
:100EC000CF93DF930097E9F0FC01329713821282EF
:100ED000A091D602B091D702ED0130E020E010974A
:100EE000A1F420813181820F931F2091D40230918F
:100EF000D5022817390709F061C0F093D502E093B5
:100F0000D402DF91CF910895EA01CE17DF07E8F50B
:100F10004A815B819E0141155105B1F7E901FB83CF
:100F2000EA8349915991C40FD51FEC17FD0761F46D
:100F3000808191810296840F951FE90199838883AE
:100F4000828193819B838A83F0E0E0E012968D9109
:100F50009C9113970097B9F52D913C911197CD0174
:100F60000296820F931F2091D4023091D502281748
:100F7000390739F6309751F51092D7021092D60200
:100F8000B093D502A093D402BCCFD383C283408157
:100F90005181840F951FC817D90761F44E5F5F4FC9
:100FA00088819981480F591F518340838A819B8191
:100FB000938382832115310509F0B0CFF093D702D6
:100FC000E093D6029ECFFD01DC01C0CF13821282D6
:100FD000D7CF4F925F926F927F928F929F92AF92F4
:100FE000BF92CF92DF92EF92FF920F931F93CF9316
:100FF000DF938C01009799F4CB01DF91CF911F9182
:101000000F91FF90EF90DF90CF90BF90AF909F90A7
:101010008F907F906F905F904F900C94C406FC016E
:10102000E60FF71F9C0122503109E217F30708F47D
:10103000AEC0D901CD91DC911197C617D70720F129
:10104000C530D10578F0CE0104978617970750F088
:10105000C61BD70B2297C193D1936D937C93CF017D
:101060000E946007C801DF91CF911F910F91FF90FF
:10107000EF90DF90CF90BF90AF909F908F907F9038
:101080006F905F904F9008955B01AC1ABD0A4C01C0
:101090008C0E9D1EA091D602B091D702512C412CEE
:1010A000F12CE12C109731F58091D4029091D5026A
:1010B0008815990509F05CC04616570608F058C017
:1010C0008091000290910102009741F48DB79EB784
:1010D0004091040250910502841B950BE817F90713
:1010E00008F055C0F093D502E093D402F901718362
:1010F0006083B8CF8D919C91119712966C90129746
:1011000013967C901397A815B90559F56C0142E028
:10111000C40ED11CCA14DB0420F1AC014A195B09CE
:10112000DA011296159780F06282738251834083B0
:10113000D9016D937C93E114F10471F0D7011396FA
:10114000FC93EE9312978ECF22968C0F9D1FF90180
:1011500091838083F301EFCFF093D702E093D6021F
:1011600081CF4816590608F42C017D01D3019ACF8E
:10117000CB010E94C4067C01009749F0AE01B80182
:101180000E94CA08C8010E94600787016BCF10E067
:1011900000E068CFFB01DC0102C001900D924150DC
:1011A0005040D8F70895FB01DC0101900D9200201A
:1011B000E1F7089511E0C5E2D1E000E006C0802F1C
:1011C000FE010E94BC062196011DC632D10780E0B7
:0811D0000807A9F7F894FFCF0E
:1011D8000000D802800000000000BA02AF02CB0273
:0C11E8008502A802950286020D0A000094
:00000001FF
