:100000000C9458000C9480000C9480000C94800098
:100010000C9480000C9480000C9480000C94800060
:100020000C9480000C9480000C9480000C94800050
:100030000C9480000C9480000C9480000C94800040
:100040000C9450040C9480000C941E040C94F8033F
:100050000C9480000C9480000C9480000C94800020
:100060000C949A040C9480000000000025002800E5
:100070002B00040404040404040402020202020229
:10008000030303030303010204081020408001025C
:1000900004081020010204081020000000080002DB
:1000A0000100000304070000000000000000B90583
:1000B00011241FBECFEFD8E0DEBFCDBF11E0A0E01E
:1000C000B1E0E8E6FFE002C005900D92A432B1076E
:1000D000D9F722E0A4E2B1E001C01D92A039B20735
:1000E000E1F710E0C8E5D0E004C02197FE010E94CE
:1000F000AC07C735D107C9F70E94F2050C94B207C7
:100100000C94000080919A0190919901891B990BA0
:10011000089508950895AF92BF92CF92DF92EF9223
:10012000FF920F931F93CF93DF936C017B018B01A1
:10013000040F151FEB015E01AE18BF08C017D107F1
:1001400059F06991D601ED91FC910190F081E02D7B
:10015000C6010995892B79F7C501DF91CF911F91D0
:100160000F91FF90EF90DF90CF90BF90AF900895E8
:10017000FC01538D448D252F30E0842F90E0821BAD
:10018000930B541710F0CF96089501970895FC0132
:10019000918D828D981761F0A28DAE0FBF2FB11D8A
:1001A0005D968C91928D9F5F9F73928F90E00895E2
:1001B0008FEF9FEF0895FC01918D828D981731F09C
:1001C000828DE80FF11D858D90E008958FEF9FEFF0
:1001D0000895FC01918D228D892F90E0805C9F4FC6
:1001E000821B91098F739927089587EE91E00E94F1
:1001F000E90021E0892B09F420E0822F089580E0B6
:1002000090E0892B29F00E94F50081110C940000E8
:100210000895FC01A48DA80FB92FB11DA35ABF4F9B
:100220002C91848D90E001968F739927848FA689F5
:10023000B7892C93A089B1898C91837080648C9349
:10024000938D848D981306C00288F389E02D8081F8
:100250008F7D80830895EF92FF920F931F93CF932A
:10026000DF93EC0181E0888F9B8D8C8D98131AC0F1
:10027000E889F989808185FF15C09FB7F894EE89D8
:10028000FF896083E889F989808183708064808335
:100290009FBF81E090E0DF91CF911F910F91FF9080
:1002A000EF900895F62E0B8D10E00F5F1F4F0F7328
:1002B0001127E02E8C8D8E110CC00FB607FCFACFE3
:1002C000E889F989808185FFF5CFCE010E94090177
:1002D000F1CFEB8DEC0FFD2FF11DE35AFF4FF082B4
:1002E0009FB7F8940B8FEA89FB8980818062CFCF1A
:1002F000CF93DF93EC01888D8823B9F0AA89BB895D
:10030000E889F9898C9185FD03C0808186FD0DC047
:100310000FB607FCF7CF8C9185FFF2CF808185FF68
:10032000EDCFCE010E940901E9CFDF91CF91089571
:1003300090E0FC01E656FF4F2491FC01EA57FF4F85
:100340003491FC01EE58FF4FE491EE23C9F02223D3
:1003500039F0233001F1A8F4213019F1223029F1CC
:10036000F0E0EE0FFF1FE859FF4FA591B4918FB752
:10037000F894EC91611126C030953E233C938FBFD9
:1003800008952730A9F02830C9F0243049F780912A
:1003900080008F7D03C0809180008F7780938000E4
:1003A000DFCF84B58F7784BDDBCF84B58F7DFBCF66
:1003B0008091B0008F778093B000D2CF8091B00051
:1003C0008F7DF9CF3E2BDACF3FB7F89480916D0146
:1003D00090916E01A0916F01B091700126B5A89B1C
:1003E00005C02F3F19F00196A11DB11D3FBFBA2FC7
:1003F000A92F982F8827BC01CD01620F711D811D87
:10040000911D42E0660F771F881F991F4A95D1F70B
:10041000089520914501260F3327331F21323105DE
:10042000ECF42091E101FC0190E080E0243069F0DF
:1004300082E00895A09145012191AC014B5D5E4F92
:10044000A40FB52FB11D2C930196861798F38091B8
:100450004501680F6093450180E0089581E00895AB
:100460001092E10181E08093C0011092BB0161E034
:1004700082E10E94980161E083E10E949801E9EB2A
:10048000F0E080818E7F808380818D7F808388E40F
:100490008093B80085E48093BC000895CF93DF93E8
:1004A00091E0909324018823B9F0C091B800D091D5
:1004B000BA008091BC008A7B8093BC0060E082E13E
:1004C0000E94980160E083E10E9498010E9430023E
:1004D000D093BA00C093B800DF91CF910895CF9226
:1004E000DF92EF92FF920F931F93CF93DF93D82F5A
:1004F000C62F613208F098C00E94E4016B017C01B4
:100500008091E10181116BC081E08093E1018093D2
:10051000C0019FEF9093BF011092BE019C0F90937A
:10052000BD018093BC018091BC01DD0FD82BD0931D
:10053000BC018091BB01813009F078C01092BB01F1
:100540000E94E4016B017C018091BC018093BB009F
:100550008091E3019091E401A091E501B091E60161
:10056000892B8A2B8B2BA1F00E94E4010091E301DF
:100570001091E4012091E5013091E6016C197D09AB
:100580008E099F09061717072807390708F448C07E
:100590008091BC0083FDD8CF85EC8093BC000E9485
:1005A000E4016B017C018091E101813009F440C0DC
:1005B0008091BE018C1710F4C091BE01EBE9F1E00F
:1005C000A1ECB1E080E08C1355C08C2FDF91CF916E
:1005D0001F910F91FF90EF90DF90CF900895809141
:1005E000E3019091E401A091E501B091E601892B2E
:1005F0008A2B8B2B09F484CF0E94E4010091E30144
:100600001091E4012091E5013091E6016C197D091A
:100610008E099F09061717072807390708F070CFBA
:100620008091E2010E944E02C0E0CFCF85EEB5CFAF
:100630008091E3019091E401A091E501B091E60180
:10064000892B8A2B8B2B09F4AECF0E94E4010091F9
:10065000E3011091E4012091E5013091E6016C196C
:100660007D098E099F09061717072807390708F023
:100670009ACFD6CF91919D938F5FA5CF0895E091AA
:10068000990180919A01E81730F4F0E0EF53FE4FA2
:10069000808190E008958FEF9FEF089590919901E8
:1006A00080919A012FEF3FEF981748F4E92FF0E07F
:1006B000EF53FE4F208130E09F5F90939901C90175
:1006C0000895CF92DF92EF92FF920F931F93CF93F3
:1006D000DF937C01CB018A0120917501222389F0EF
:1006E000EB016B01C40ED51ECC15DD0569F06991D7
:1006F000D701ED91FC910190F081E02DC7010995A2
:10070000F3CF642F0E940902C801DF91CF911F919E
:100710000F91FF90EF90DF90CF900895CF93DF93EC
:100720001F92CDB7DEB76983209175012223F9F0BE
:1007300020919801203258F021E030E0FC01338311
:10074000228390E080E00F90DF91CF910895809117
:100750007601E82FF0E0E958FE4F998190838F5F92
:10076000809376018093980181E090E0ECCF61E086
:10077000CE0101960E940902F7CF90E080E0089533
:1007800085ED8093BC008091E3019091E401A091FC
:10079000E501B091E6010796A11DB11D23E0B695D4
:1007A000A795979587952A95D1F72091BC0024FDB0
:1007B00003C01092E10108954091E3015091E401DA
:1007C0006091E5017091E601452B462B472B69F3BB
:1007D0000097A105B10541F025E32A95F1F7000046
:1007E0000197A109B109E1CF8091E2010C944E0279
:1007F0001F920F920FB60F9211242F933F934F9396
:100800005F936F937F938F939F93AF93BF93EF9378
:10081000FF9387EE91E00E940901FF91EF91BF9154
:10082000AF919F918F917F916F915F914F913F9188
:100830002F910F900FBE0F901F9018951F920F923F
:100840000FB60F9211242F938F939F93EF93FF93E3
:10085000E091F701F091F8018081E091FD01F091C4
:10086000FE0182FD1BC09081809100028F5F8F731B
:1008700020910102821741F0E0910002F0E0E9517D
:10088000FE4F958F80930002FF91EF919F918F9182
:100890002F910F900FBE0F901F9018958081F4CF6D
:1008A0001F920F920FB60F9211242F933F938F93A5
:1008B0009F93AF93BF938091690190916A01A0913A
:1008C0006B01B0916C013091680123E0230F2D374B
:1008D00058F50196A11DB11D20936801809369010F
:1008E00090936A01A0936B01B0936C0180916D01AC
:1008F00090916E01A0916F01B09170010196A11DC0
:10090000B11D80936D0190936E01A0936F01B09320
:100910007001BF91AF919F918F913F912F910F9057
:100920000FBE0F901F90189526E8230F0296A11D69
:10093000B11DD2CF1F920F920FB60F9211242F9399
:100940003F934F935F936F937F938F939F93AF9357
:10095000BF93EF93FF938091B900887F803609F4AD
:100960004AC0F0F5883209F4A7C018F5803109F4BF
:100970009BC0B8F4882309F4F9C0883009F494C006
:10098000FF91EF91BF91AF919F918F917F916F9167
:100990005F914F913F912F910F900FBE0F901F903D
:1009A0001895883109F488C0803251F78093BF01CF
:1009B00014C0803409F49DC040F48033B9F3883307
:1009C000F9F68093BF0185ECB0C0803509F485C08D
:1009D000883509F496C0883499F60E94C003D0CFB8
:1009E000883909F48CC038F5883729F050F48836F6
:1009F00011F0803729F683E08093E10110926701BE
:100A000057C0883809F47BC0803919F0803809F064
:100A1000B7CF80916701803208F071C0E091670123
:100A200081E08E0F809367018091BB00F0E0E95B6D
:100A3000FE4F80833DC0803B39F0E0F4803A09F4FA
:100A400079C0883A09F09CCF84E08093E10110924C
:100A5000460110924501E0917301F09174010995EE
:100A60008091450181110FC081E080934501109272
:100A7000250109C0803C09F4A6CF883C09F4A3CF26
:100A8000883B09F07DCFE091460181E08E0F809395
:100A90004601F0E0EB5DFE4F80818093BB009091BA
:100AA00046018091450129C08091BC018093BB0023
:100AB00085EC8093BC0064CF9091BE018091BD0114
:100AC000981758F5E091BE0181E08E0F8093BE012A
:100AD000F0E0E556FE4F8081E9CFE091BE0181E074
:100AE0008E0F8093BE018091BB00F0E0E556FE4F73
:100AF00080839091BE018091BD019817C8F285E86E
:100B0000D8CFE091BE0181E08E0F8093BE0180912D
:100B1000BB00F0E0E556FE4F80838091C00181115B
:100B20005CCF81E08093BB0184EA8093BC0010928B
:100B3000E10126CF85EC8093BC001092E101809109
:100B40006701803230F4E0916701F0E0E95BFE4F2D
:100B500010826091670170E0E0917101F091720183
:100B600087E491E00995109267010ACF1092BF01C6
:100B700034CFE7EEF1E01382128288EE93E0A0E03A
:100B8000B0E084839583A683B78324E031E031838A
:100B9000208325EC30E03587248724EC30E037874C
:100BA000268720EC30E0318B208B21EC30E0338B3A
:100BB000228B22EC30E0358B248B26EC30E0378B17
:100BC000268B118E128E138E148EE4E8F2E01382BF
:100BD000128284839583A683B78386E191E0918313
:100BE00080830895789484B5826084BD84B58160E3
:100BF00084BD85B5826085BD85B5816085BD8091E8
:100C00006E00816080936E0010928100809181005F
:100C10008260809381008091810081608093810057
:100C2000809180008160809380008091B100846019
:100C30008093B1008091B00081608093B00080917A
:100C40007A00846080937A0080917A008260809339
:100C50007A0080917A00816080937A0080917A0096
:100C6000806880937A001092C100109299011092CE
:100C70009A010E94300289E890E090937401809379
:100C800073018AE890E09093720180937101E09182
:100C9000F701F091F80182E08083E091F301F09197
:100CA000F4011082E091F501F091F6018FEC808360
:100CB0001092FF01E091FB01F091FC0186E080833E
:100CC000E091F901F091FA01808180618083E091E7
:100CD000F901F091FA01808188608083E091F90147
:100CE000F091FA01808180688083E091F901F091B0
:100CF000FA0180818F7D808311E007E195EE792EE6
:100D000025EC622EC0E0D0E032E0532E44244A9419
:100D1000109375010093970110927601109298013B
:100D200063E584E892E00E948E03F090980120E24F
:100D30002F1508F48CC00E94E4014B015C018091E6
:100D4000E10181115FC05092E1011093C001409216
:100D5000BF011092BE01F092BD01E7E7F1E0ABE9FF
:100D6000B1E0F812A0C01092BC018091BC018E626B
:100D70008093BC018091BB01813009F098C0109232
:100D8000BB010E94E4016B017C018091BC01809356
:100D9000BB008091E3019091E401A091E501B09145
:100DA000E601892B8A2B8B2B99F00E94E40180901D
:100DB000E3019090E401A090E501B090E6016C1988
:100DC0007D098E099F0986169706A806B906D8F1EF
:100DD0008091BC0083FDD9CF6092BC000E94E401E9
:100DE0006B017C018091E101823009F463C0809144
:100DF000BF018F3F61F18091BF01803241F180914D
:100E0000BF0125C08091E3019091E401A091E5012B
:100E1000B091E601892B8A2B8B2B09F490CF0E948D
:100E2000E4012091E3013091E4014091E50150910A
:100E3000E601681979098A099B09261737074807C7
:100E4000590708F07CCF8091E2010E944E02109277
:100E50007601109298011092750161E087E10E947D
:100E60006F021092990180939A0184E892E00E94A7
:100E70004E03813208F080E2682F87E10E946F0202
:100E8000F82E1092990180939A0180919901F81699
:100E900099F184E892E00E944E03682F87EE91E07A
:100EA0000E942B01F2CF91919D938F5F5ACF709248
:100EB000BC0094CF8091E3019091E401A091E50101
:100EC000B091E601892B8A2B8B2B09F48BCF0E94E2
:100ED000E4018090E3019090E401A090E501B090DE
:100EE000E6016C197D098E099F0986169706A806EA
:100EF000B90608F077CFA7CF0E94E4014B015C014F
:100F000084EFC82EDD24D394E12CF12C0E94E4015F
:100F1000681979098A099B09683E73408105910522
:100F2000A8F381E0C81AD108E108F10828EE820E82
:100F300023E0921EA11CB11CC114D104E104F104F0
:100F400029F7209709F4E4CE0E94F500882309F4DC
:100F5000DFCE0E940000DCCEEE0FFF1F0590F49163
:080F6000E02D0994F894FFCF85
:100F6800000000002B018B00B8007801E900C700E1
:100F7800DB00000000008E036103BD033E03820016
:040F88004E033F03D2
:00000001FF
